:020000040800F2
:1000000000000220B9020008BF020008C302000875
:1000100035030008390300088103000800000000D0
:10002000000000000000000000000000C9030008FC
:10003000CD03000800000000D1030008E11900080A
:10004000E5030008E5030008E5030008E5030008F0
:10005000E5030008E5030008E5030008E5030008E0
:10006000E5030008E5030008E5030008E5030008D0
:10007000E5030008E5030008E5030008E5030008C0
:10008000E5030008E5030008E5030008E5030008B0
:10009000E5030008E5030008E5030008E5030008A0
:1000A000E5030008E5030008E5030008E503000890
:1000B000E5030008E5030008E5030008E503000880
:1000C000E5030008E5030008E5030008E503000870
:1000D000E5030008E5030008E5030008E503000860
:1000E000E5030008E5030008E5030008E503000850
:1000F000E5030008E5030008E5030008E503000840
:10010000E5030008E5030008E5030008E50300082F
:10011000E5030008E5030008E5030008E50300081F
:10012000E5030008E5030008E5030008E50300080F
:10013000E5030008E5030008E5030008E5030008FF
:10014000E5030008E5030008E5030008E5030008EF
:10015000E5030008E5030008E5030008E5030008DF
:10016000E5030008E5030008E5030008E5030008CF
:10017000E5030008E5030008E503000800000000AF
:10018000E5030008E503000800B583B001F028FA94
:10019000384B394A1360394A1360394906E011680F
:1001A0001960043304329842F9D82146354B9942FC
:1001B00005D20A684B6801F10C048868F3E72E4BFE
:1001C0001A68314B9A4200D0FEE72C4B1A682F4B2D
:1001D0009A42F9D1274B2E4A13602E4A13602E4BB8
:1001E00005E00020106004329342FAD80B462B4AF7
:1001F000934204D2194651F8082B5B68F4E7244B6C
:100200001B6813B9234B1B6803B1FEE701F044FCE4
:10021000694601A800F0A8FF214B224CE41AA41063
:100220000025AC4214DC204B204CE41AA41000251D
:10023000AC4213DC0099019801F05EFC05461C4BB2
:100240001C4CE41AA410002C0EDC284600F028FFF9
:10025000134B53F8253098470135E2E7124B53F81A
:10026000253098470135E3E7013C114B53F8243022
:100270009847E8E7BABADECA00000020D80100209B
:10028000E8030008000400087856341232547698C7
:10029000DC010020DC03002000040008100400083A
:1002A00010040008100400081004000814040008DA
:1002B000140400081404000808B5FFF765FF00BE29
:1002C000FEE71EF0040F0CBFEFF30880EFF3098088
:1002D0007146414A10472DE9F04182B004468846F4
:1002E000124B5E6B9F6B9D6A1B6B13F0020F03D06A
:1002F0000E4BDB6A002B0CDB0D4801F0F1F8CDF85A
:1003000000803B4632462946204601F075F900BE82
:10031000FEE74BF6AB6101F0E9F90028ECD04FF0B5
:100320000042024BDA6202B0BDE8F08100ED00E06D
:10033000B831000800BEFEE71EF0040F0CBFEFF35B
:100340000880EFF309807146244A10472DE9F041F7
:1003500082B004468846084B5E6B9F6B9D6A0748D7
:1003600001F0BEF8CDF800803B46324629462046D3
:1003700001F042F900BEFEE700ED00E0C8310008E0
:100380001EF0040F0CBFEFF30880EFF309807146F5
:10039000134A10472DE9F04182B004468846084BC5
:1003A0005E6B9F6B9D6A074801F09AF8CDF800805C
:1003B0003B4632462946204601F01EF900BEFEE7C4
:1003C00000ED00E0D431000800BEFEE700BEFEE70D
:1003D00000BEFEE770470000D70200084D0300088A
:0803E0009503000800BEFEE7D2
:1003E8000834000800000020DC0100200834000860
:1003F8000000001000000010DC010020E0030020D5
:0C04080000000010000000107D1C000827
:1004200010B5044600F0BCFD064BA3FB003080096C
:1004300000F094F8002221464FF0FF3000F04AF817
:10044000002010BDD34D621008B50B4B1A6842F462
:1004500000721A601A6842F480621A601A6842F4E4
:1004600080721A60032000F017F80F20FFF7D8FF02
:1004700001F00BFC002008BD003C0240024A13685A
:1004800001331360704700BFD4030020014B18688C
:10049000704700BFD403002010B50446C31E042BD0
:1004A0000FD80A4AD36823F4E0631B041B0C240210
:1004B00004F4E064234343F0BF6343F40033D360A8
:1004C00010BDA421024801F001F8EAE700ED00E0C8
:1004D000882F000870B505460C4616460F2A24D80A
:1004E0000F2C27D81A4BDB68C3F30223C3F1070292
:1004F000042A28BF0422191D062920D9033B012103
:1005000001FA02F2013A14409C4001FA03F3013B64
:1005100033401C43002D14DB2401E4B205F1604597
:1005200005F5614585F8004370BDBC21094800F020
:10053000CDFFD5E7BD21074800F0C8FFD2E7002373
:10054000DDE705F00F052401E4B2034B5C5570BDF7
:1005500000ED00E0882F000814ED00E00138B0F154
:10056000807F0AD2064B5860F021064A82F8231099
:100570000020986007221A6070470120704700BF72
:1005800010E000E000ED00E010B50446042800D0C3
:1005900038B9042C0BD0094A136823F00403136004
:1005A00010BD40F2B311064800F090FFF1E7034A96
:1005B000136843F00403136010BD00BF10E000E0B7
:1005C000882F00082DE9F04782B080460F46B54BD2
:1005D000984223D003F5806398421FD003F58063CF
:1005E00098421BD003F58063984217D003F58063CF
:1005F000984213D003F5806398420FD003F58063CF
:1006000098420BD003F58063984207D003F58063CE
:10061000984203D0C521A44800F058FF3B8853B34B
:100620007B68012B22D9112B20D0022B1ED0122B3C
:100630001CD09E4A934219D002F58012934215D0E5
:1006400002F58012934211D0A2F5F81293420DD018
:1006500002F58012934209D002F58012934205D030
:10066000032B03D0C721904800F030FFBB68022B5A
:1006700006D800257AE0C6218B4800F027FFCFE797
:10068000C821894800F022FFF3E73B69FBB1092B41
:100690001DD0012B1BD0022B19D0032B17D0042BFC
:1006A00015D0052B13D0062B11D0072B0FD0082BFC
:1006B0000DD00A2B0BD00B2B09D00C2B07D00D2BF8
:1006C00005D00F2B03D0D921774800F0FFFEE908B1
:1006D000083158F8213005F0070292000F209040B1
:1006E00023EA0003386900FA02F2134348F8213084
:1006F0004CE0EC216C4800F0E9FE63E0082100E0EA
:100700000021A1400A430233694941F82320694B83
:100710001A686FEA090302EA0301786810F4803F5F
:1007200001D049EA0201634A1160526803EA0201FA
:10073000786810F4003F01D049EA02015D4A516037
:10074000926803EA0201786810F4801F01D049EA38
:100750000201584A9160D2681340796811F4001F71
:1007600001D049EA0203534AD36001350F2D00F24C
:1007700096800124AC403B6804EA03094C45F4D15F
:100780007B68022B81D0122B3FF47FAFD8F800306A
:100790004FEA450A032606FA0AF6F64333407A681A
:1007A00002F0030202FA0AF21343C8F800307B6831
:1007B0005A1E012A03D9112B01D0122B16D1FB6826
:1007C000032B96D8D8F808303340FA6802FA0AF2B8
:1007D0001343C8F80830D8F8043023EA04047B68CF
:1007E000C3F30013AB401C43C8F80440D8F80C30E6
:1007F0001E40BB6803FA0AF31E43C8F80C607B680E
:1008000013F0805FB1D0002301932B4B5A6C42F45C
:1008100080425A645B6C03F480430193019BAB08F4
:10082000991C234A52F8212005F003018C000F2166
:10083000A14022EA01021B4880453FF461AF1F49F5
:1008400088451ED001F5806188451CD001F5806186
:1008500088451AD001F58061884518D001F580617E
:10086000884516D001F58061884514D001F5806176
:10087000884512D001F5806188453FF43FAF0921DA
:100880003FE701213DE702213BE7032139E704214E
:1008900037E7052135E7062133E7072131E702B0C5
:1008A000BDE8F08700000240BC2F000800001110D6
:1008B00000380140003C0140003802400004024082
:1008C00030B583B0044603680F2B2DD8236813F08E
:1008D000010F3CD06368012B05D9052B03D0FB2108
:1008E0009F4800F0F3FD9F4B9B6803F00C03042B23
:1008F00024D09C4B9B6803F00C03082B19D0227961
:10090000994B1A706368002B50D0FFF7BFFD054666
:10091000944B1B6813F4003F19D1FFF7B7FD401B40
:100920006428F5D90320D7E1F6218D4800F0CEFDEB
:10093000CCE78C4B5B6813F4800FE0D0894B1B68CD
:1009400013F4003F03D06368002B00F0C2812368DA
:1009500013F0020F5CD0E368012B04D940F22D1193
:100960007F4800F0B3FD23691F2B2ED87D4B9B6879
:1009700013F00C0F34D07B4B9B6803F00C03082B57
:1009800029D0E368002B72D00122784B1A60FFF760
:100990007DFD0546734B1B6813F0020F58D1FFF71E
:1009A00075FD401B0228F5D9032095E1FFF76EFD88
:1009B00005466C4B1B6813F4003FC8D0FFF766FD7B
:1009C000401B6428F5D9032086E14FF497716448F1
:1009D00000F07CFDCAE7634B5B6813F4800FD0D155
:1009E000604B1B6813F0020F04D0E368012B01D0A9
:1009F000012071E15B48036823F0F8032169F822C4
:100A000092FAA2F2B2FA82F201FA02F213430360FE
:100A1000236813F0080F4ED06369012B04D94FF4FB
:100A2000B7714F4800F052FD636993B30122504BF8
:100A30001A60FFF72BFD05464A4B5B6F13F0020F60
:100A400039D1FFF723FD401B0228F5D9032043E1EC
:100A50004448036823F0F8032169F82292FAA2F2CD
:100A6000B2FA82F201FA02F213430360D0E70022E5
:100A70003E4B1A60FFF70AFD05463A4B1B6813F020
:100A8000020FC5D0FFF702FD401B0228F5D9032055
:100A900022E10022364B1A60FFF7F8FC0546314B85
:100AA0005B6F13F0020F06D0FFF7F0FC401B02282B
:100AB000F5D9032010E1236813F0040F5ED0A3687A
:100AC000012B06D9052B04D04FF4CC71244800F03B
:100AD000FDFC00230193234B1A6C42F080521A64F0
:100AE0001B6C03F080530193019B224A136843F46B
:100AF00080731360FFF7CAFC05461E4B1B6813F496
:100B0000807F06D1FFF7C2FC401B0228F5D90320E5
:100B1000E2E0227A184B1A70A36883B1FFF7B6FCA3
:100B20000546104B1B6F13F0020F27D1FFF7AEFCE9
:100B3000401B41F288339842F3D90320CCE0FFF701
:100B4000A5FC0546074B1B6F13F0020F16D0FFF7ED
:100B50009DFC401B41F288339842F3D90320BBE04F
:100B6000FC2F0008003802400238024000004742D3
:100B7000800E47420070004070380240A369022B8B
:100B80001FD8A369002B00F0A680554A926802F096
:100B90000C02082A00F0A280022B18D00022514B30
:100BA0001A60FFF773FC04464D4B1B6813F0007F7F
:100BB00000F08D80FFF76AFC001B0228F4D90320A7
:100BC0008AE040F2CD11484800F080FCD9E7E369A3
:100BD0003BB1B3F5800F04D04FF4EB71424800F005
:100BE00075FC236A3F2B28D8636A323BB3F5BF7F7D
:100BF00029D8A36A022B0AD0042B08D0062B06D0D2
:100C0000082B04D040F2D911374800F05FFCE36AAA
:100C1000043B0B2B1DD80022324B1A60FFF736FC29
:100C200005462F4B1B6813F0007F18D0FFF72EFCF2
:100C3000401B0228F5D903204EE040F2D7112A4884
:100C400000F044FCD0E74FF4EC71274800F03EFC84
:100C5000CFE74FF4ED71244800F038FCDBE7E3699F
:100C6000226A1343616A47F6C07292FAA2F2B2FA9C
:100C700082F201FA02F21343A26A5208013A4FF4D7
:100C8000403191FAA1F1B1FA81F18A401343E16A4E
:100C90004FF0706292FAA2F2B2FA82F201FA02F214
:100CA00013430F4A536001220E4B1A60FFF7EEFB0D
:100CB00004460B4B1B6813F0007F06D1FFF7E6FBE1
:100CC000001B0228F5D9032006E0002004E00020E4
:100CD00002E0012000E0002003B030BD0120FBE76E
:100CE0000038024060004742FC2F000870B50446FF
:100CF0000D460368013B0E2B11D8072D15D8804BEC
:100D00001B6803F00F039D4215D9EBB27C4A1370A8
:100D1000136803F00F039D420DD0012070BD4FF406
:100D20000E71784800F0D2FBE7E740F239217548B0
:100D300000F0CCFBE3E7236813F0020F1DD0A3689B
:100D4000A3B1802B12D0902B10D0A02B0ED0B02BA3
:100D50000CD0C02B0AD0D02B08D0E02B06D0F02B23
:100D600004D04FF41471674800F0B0FB664A9368F2
:100D700023F0F003A1680B439360236813F0010F85
:100D800069D06368032B29D86368012B2CD09A1E85
:100D9000012A30D95C4A126812F0020F00F0AD80CF
:100DA00059498A6822F0030213438B60FFF76EFBF8
:100DB00006466368012B25D0022B32D0032B3FD08F
:100DC000514B9B6813F00C0F45D0FFF75FFB801B66
:100DD00041F288339842F3D9032070BD40F2572185
:100DE000484800F073FBCFE7474A126812F4003F0F
:100DF000D6D1012070BD444A126812F0007FCFD1D5
:100E0000012070BD404B9B6803F00C03042B22D0E3
:100E1000FFF73CFB801B41F288339842F2D9032054
:100E200070BD394B9B6803F00C03082B13D0FFF700
:100E30002DFB801B41F288339842F2D9032070BD0C
:100E4000314B9B68FFF722FB801B41F288339842AD
:100E5000F6D9032070BD2A4B1B6803F00F039D4297
:100E600009D2EAB2264B1A701B6803F00F039D42A9
:100E700001D0012070BD236813F0040F19D0E3687E
:100E800083B1B3F5805F0DD0B3F5A05F0AD0B3F5A1
:100E9000C05F07D0B3F5E05F04D040F2B521194838
:100EA00000F014FB184A936823F4E053E1680B4305
:100EB0009360236813F0080F1AD0236983B1B3F548
:100EC000805F0DD0B3F5A05F0AD0B3F5C05F07D047
:100ED000B3F5E05F04D04FF42F710A4800F0F6FA42
:100EE000094A936823F46043216943EAC10393608C
:100EF0000F20FFF795FA002070BD012070BD00BFE4
:100F0000003C0240FC2F000800380240214B9B6847
:100F100003F00C03042B3AD0082B01D01E48704775
:100F20001C4B586800F03F005B6813F4800F1ED024
:100F30001A4AB2FBF0F2174B586847F6C0731840D4
:100F400093FAA3F3B3FA83F3D84000FB02F0114BFA
:100F50005B6803F440334FF4403292FAA2F2B2FAE3
:100F600082F2D34001335B00B0FBF3F070470A4AD2
:100F7000B2FBF0F2074B586847F6C073184093FA7B
:100F8000A3F3B3FA83F3D84000FB02F0DFE7034892
:100F9000704700BF003802400024F40000127A00BD
:100FA00008B5FFF7B3FF084B9B6803F0F003F0228E
:100FB00092FAA2F2B2FA82F2D340044AD35CD84049
:100FC000034B186008BD00BF00380240EC2F00083A
:100FD0000400002008B5034800F09AFA012000F050
:100FE0005FF800BF2C30000808B503460C4A1268B1
:100FF0005AB10B4A1068033323F003030344094A30
:10100000934206D8064A136008BD0749044A116096
:10101000EFE700F03FFE0C2303604FF0FF3008BD08
:10102000E001002000FC0120E003002030B5002595
:10103000132420462946ABBE0446204630BD38B5B1
:10104000044600F027FE0546FFF7F0FF2860204623
:1010500038BDB0F1FF3F00D0704708B5FFF7EFFF94
:1010600008BD000010B504460B4B186808B1836B2F
:101070005BB1132C0CD8094B53F83430B3F1FF3F5C
:1010800008D0064800EBC40010BD00F049FEF0E7B0
:10109000002010BD002010BD0800002068020020C4
:1010A00000B530B9044D182420462946ABBE04468D
:1010B000FEE7024DF7E700BF260002002300020012
:1010C0002DE9F04184B0234F0197032603960023B6
:1010D0000293012401AD20462946ABBE80461E4B3B
:1010E000C3F8008001970396042302932046294603
:1010F000ABBE8046194BC3F80080019703960823C6
:10110000029320462946ABBE0446154B1C60B4F141
:10111000FF3F01D000230AE0104B1A68104B1A6001
:10112000F8E74FF0FF310F4A42F833100133132B29
:10113000F7DD0C4B084A12681A6000225A60074912
:1011400009689960DA600649096819615A6104B052
:10115000BDE8F081403000086002002064020020F9
:101160005C020020680200202DE9F04F83B0834626
:101170008A46354B00934F2301936C461526304623
:101180002146ABBE0646002E49D1B14600222E4B69
:1011900083F84F20009DB046374616E000F0AAFEC7
:1011A000204490F90130002B20DB092C1CD03B4659
:1011B00053B9082E34DC222C1AD0272C18D0234BFC
:1011C00043F8265001360127013595F900403CB31C
:1011D000002FE3D0B8F1000F0DD0A045F4D10023CB
:1011E0002B70C8464F46EFE70123E1E70123DFE715
:1011F0000135A046E3E700F07DFE204490F9013080
:10120000002B0ADB092C06D04346002BDCD0002340
:101210002B704746D8E73B46F7E73B46F5E7002605
:101220002EB9094B00221A70084A13600136074B89
:10123000002243F82620CBF80060CAF80030FFF700
:101240003FFF03B0BDE8F08FE4010020340200202E
:1012500030B585B001900291039201AD062420467D
:101260002946ABBE04462046FFF7F3FE05B030BD6D
:1012700070B50E461546FFF7F5FE68B104462A46DE
:1012800031460068FFF7E4FFB0F1FF3F03D0281AB2
:1012900063680344636070BD00F0FCFC09230360D5
:1012A0004FF0FF3070BDF0B583B00C461546FFF728
:1012B000D9FEC0B10646022D1CD8012D21D0022D29
:1012C00034D03368009301946F460A252846394686
:1012D000ABBE05462846FFF7BCFE00283DDB746028
:1012E000204603B0F0BD00F0D5FC092303604FF0A9
:1012F000FF30F6E700F0CEFC162303604FF0FF301E
:10130000EFE74368E41801D40025D8E700F0C2FCF9
:10131000162303607368002B19DD002C1ADD00F022
:10132000B9FC8B2303604FF0FF30DAE7336802AF7C
:1013300047F8083D0C2528463946ABBE05462846E9
:10134000FFF787FEB0F1FF3FCBD00444B9E74FF081
:10135000FF30C6E74FF0FF30C3E74FF0FF30C0E784
:1013600008B5FFF7A0FF08BD30B585B00190029128
:10137000039201AD052420462946ABBE0446204613
:10138000FFF767FE05B030BD70B50E461446FFF797
:1013900069FE70B10546224631460068FFF7E4FF5A
:1013A000021E11DBA01A6B6803446B60944207D0E5
:1013B00070BD00F06FFC092303604FF0FF3070BD7B
:1013C0000020FFF73CFE70BD4FF0FF30F0E730B576
:1013D00083B002AD45F8040D022420462946ABBE79
:1013E00004462046FFF735FE03B030BD38B504464D
:1013F000FFF738FE68B10546013C012C10D928687A
:10140000FFF7E5FF034610B94FF0FF322A60184698
:1014100038BD00F03FFC092303604FF0FF33F6E7CF
:10142000044B9A681B699A42E9D14FF0FF3303607D
:101430000023ECE76802002070B50C46FFF712FEAF
:10144000A8B10646636843F4005363604FF48063B9
:10145000E3620C2528463146ABBE05462846FFF719
:10146000F8FDB0F1FF3F01D02061002070BD00F019
:1014700011FC092303604FF0FF3070BD38B50546FD
:101480000C463C220021204600F054FD214628460F
:10149000FFF7D2FF38BD38B5FFF7E4FD80B1054650
:1014A000092420462946ABBE04462046012C06D01E
:1014B00000F0F0FB0446FFF7B9FD2060002038BDC6
:1014C00000F0E8FB09230360002038BD08B50A4698
:1014D0000146024800F004F8FFF77CFD44300008A4
:1014E0000FB400B583B004AB53F8042B01938021F3
:1014F000064800F011FF002803DD0146034800F014
:101500006BF803B05DF804EB04B0704708030020EB
:1015100010B5044600F035FE0146204600F05CF8A8
:101520000121024800F058F810BD00BF3431000816
:1015300070B505460E4601460B48FFF7D1FF002463
:1015400005E056F824100948FFF7CAFF0134AC4201
:1015500005DA002CF5D00648FFF7C2FFF1E7054891
:10156000FFF7BEFF70BD00BF703000088C30000870
:1015700088300008943000082DE9F04385B0044617
:101580000F4643560BB10E461EE004252846214661
:10159000ABBE0446384605B0BDE8F08314F9011B24
:1015A00004AA1A4402F8101C0133AB42F6D304AA71
:1015B0001344002203F8102CE9464FF0040840467B
:1015C0004946ABBE8046761B002EE3D03546102E32
:1015D00028BF10250023E8E708B5FFF7CDFF08BDB9
:1015E00008B500F003F9024B024A9A6008BD00BF3B
:1015F00000ED00E000000008F8B504460D4617466F
:101600001E462748FFF76CFF21682648FFF768FF52
:1016100061682548FFF764FFA1682448FFF760FF71
:10162000E1682348FFF75CFF21692248FFF758FF74
:1016300061692148FFF754FFA1692048FFF750FF77
:10164000E1691F48FFF74CFF1E48FFF749FF294695
:101650001D48FFF745FF1D4CE16A1D48FFF740FF9D
:10166000216B1C48FFF73CFFE16B1B48FFF738FF7D
:1016700015F0800F0AD115F4004F0CD11748FFF771
:101680002FFF06991648FFF72BFFF8BD394615487E
:10169000FFF726FFEFE731461348FFF721FFEDE79D
:1016A0009C300008AC300008BC300008CC3000088A
:1016B000DC300008EC300008FC3000080C31000879
:1016C0001C3100082C3100083831000800ED00E022
:1016D0004831000858310008683100089831000886
:1016E000A0310008783100088831000838B58369D6
:1016F0001B888B4201D0002038BD04460368456832
:10170000013B302B69D8DFE803F046211C1C5E301A
:10171000332D191968191919191936192468192737
:101720006839686868686868686868686868686868
:101730006868686868686868681919004FF0FF335E
:101740000360A3690233A361012038BD0023036055
:10175000F7E700230360F4E700232B606B60AB60C6
:10176000EB60EEE700230360EBE7AB680360E8E7BC
:1017700000230360E5E700230360E2E7BFF34F8F38
:101780001749CA6802F4E062164B1343CB60BFF3FB
:101790004F8F00BFFDE71449286800F0E8FC70B9DE
:1017A0006B6813B901232360CBE7042B02D102231A
:1017B0002360C6E7082B02D103232360C1E74FF063
:1017C000FF332360BDE72B68023B012B02D9AB68D6
:1017D0000360B6E700230360B3E7002038BD00BF15
:1017E00000ED00E00400FA05403000080C4B1A68D8
:1017F00042F001021A60002199601A6822F0847296
:1018000022F480321A60074A5A601A6822F4802251
:101810001A60D9604FF00062034B9A60704700BFB6
:10182000003802401030002400ED00E0224B9B689D
:1018300003F00C03042B14D0082B16D01BB11F4A45
:101840001F4B1A6002E01D4A1D4B1A601A4B9B6821
:10185000C3F303131B4AD15C194A1368CB401360CE
:101860007047194A164B1A60F0E7134B5A685B68C9
:1018700003F03F0312F4800F13D0134AB2FBF3F2CC
:101880000D4B5B68C3F3881303FB02F30A4A5268EB
:10189000C2F3014201325200B3FBF2F3084A136073
:1018A000D4E7064AB2FBF3F2034B5B68C3F3881339
:1018B00003FB02F3EAE700BF003802400024F40013
:1018C00004000020E431000800127A0010B4016026
:1018D00042600373012303FA02F2826010BC704776
:1018E000037B3BB9036803F5801380339B02826856
:1018F0009A617047036803F5801380339B02416847
:10190000103101228A409A617047037B53B9036802
:1019100003F5801380339B024168103101228A4015
:101920009A617047036803F5801380339B028268D5
:101930009A61704710B586B004460D48026B216865
:10194000012303FA01F10A430263A26801920293A0
:10195000022204920393206800F58010803001A9D0
:101960008002FEF72FFE2046FFF7CFFF06B010BD26
:1019700000380240036803F5801380339B02196925
:101980008268114203D159690A435A617047596903
:1019900021EA02025A617047037B5BB9036803F5D1
:1019A000801380339B021A6983681A4214BF012096
:1019B00000207047036803F5801380339B021A6987
:1019C00083681A420CBF012000207047034B186047
:1019D000024B1B68002BFBD1704700BF880300201F
:1019E00008B5FEF74BFD044B1B681BB1024A136898
:1019F000013B136008BD00BF8803002030B595B0DF
:101A000000240194214B1A6C42F080521A641B6C22
:101A100003F080530193019B02941D4B1A6842F41A
:101A200080421A601B6803F480430293029B0123E7
:101A3000089309934FF480030F93082310934FF4F6
:101A4000A873119302251295072313930E9508A8E6
:101A5000FEF736FF0F230393049505944FF4A0532C
:101A600006934FF480530793052103A8FFF73EF92F
:101A7000FFF796FA074BA3FB00308009FEF76EFDD7
:101A80000420FEF781FD15B030BD00BF00380240D4
:101A900000700040D34D621008B5FEF7D5FCFFF78B
:101AA000ADFFFFF7C3FE08BD012800D070474FF619
:101AB000FF739942FAD110B50E4C00230C2203217A
:101AC0002046FFF703FF00230D22032104F110003D
:101AD000FFF7FCFE00230E22032104F12000FFF794
:101AE000F5FE00230F22032104F13000FFF7EEFE84
:101AF00010BD00BF8C0300202DE9F04105460E46C5
:101B0000FFF716FD5248FFF703FD524800F0D4FAE4
:101B1000514B1B68DB6818220121504800F0D8F9AE
:101B20004F4C21684F48FFF7DBFC23684E4AA2FB6D
:101B300003239B09013BB3F1807F09D24B4A5360D9
:101B4000F0214B4B83F8231000239360072313608D
:101B50000024032C06D8474800EB0410FFF7EAFEE8
:101B60000134F6E7012D08DD706800F08FF880463B
:101B70000F2804DC4FF0100801E04FF0100800249B
:101B8000032C06D83B4800EB0410FFF7A9FE0134F4
:101B9000F6E74FF47A70FFF719FF0024032C06D8FC
:101BA000344800EB0410FFF7B0FE0134F6E7FA20EA
:101BB000FFF70CFF01213048FFF792FC00250126BA
:101BC000032D16D82B4C04EB05142046FFF788FE96
:101BD00040F2EE20FFF7FAFE2046FFF796FEFA20CD
:101BE000FFF7F4FE013631462348FFF779FC013553
:101BF000E6E7002709E04FF47A70FFF7E7FE0136C9
:101C000031461D48FFF76CFC0137B8450FDD002554
:101C1000032DF0D8174C04EB05142046FFF7AAFE5D
:101C20002046FFF7B9FE0028E5D10135F0E7002492
:101C3000032C06D80F4800EB0410FFF751FE0134C7
:101C4000F6E74FF47A70FFF7C1FE0020BDE8F0819F
:101C5000F43100080832000808000020243200088F
:101C60000400002040320008D34D621010E000E074
:101C700000ED00E08C0300205832000808B54FF654
:101C8000FF710120FFF710FF08BD70470A220021F5
:101C900000F000BB014B1868704700BF080000202F
:101CA000014900F0A9B800BF25260008002310B59F
:101CB000044603604360836081814366C28103619F
:101CC00043618361194608225C3000F033F9054B0B
:101CD0006362054BA362054BE362054B24622363F9
:101CE00010BD00BFE92000080B21000843210008B7
:101CF0006721000870B54A1E682555430E4605F158
:101D0000740100F01FF9044640B1002180E8420050
:101D10000C30A06005F1680200F00CF9204670BD9F
:101D2000836910B5044633BB8364C3640365124BF7
:101D3000124A1B688262984204BF0123836100F04B
:101D40001FF86060204600F01BF8A060204600F0FD
:101D500017F80022E06004216068FFF7A7FF012266
:101D60000921A068FFF7A2FF02221221E068FFF715
:101D70009DFF0123A36110BDC4320008A11C00080F
:101D8000F8B51C4B1E68B369074613B93046FFF718
:101D9000C7FF4836B4687368013B03D5336833B175
:101DA0003668F7E7B4F90C506DB16834F4E70421F4
:101DB0003846FFF79FFF30600028F1D10C233B60CD
:101DC00004462046F8BD4FF6FF73E3810123A3814B
:101DD00065662560A560656025616561A56108226D
:101DE000294604F15C0000F0A5F86563A563A564CD
:101DF000E564E6E7C43200082DE9F84380468946E9
:101E000000F14804002614B93046BDE8F883A568FF
:101E10006768013F01D52468F5E7AB89012B07D935
:101E2000B5F90E30013303D029464046C847064372
:101E30006835EEE72DE9F843089C8946174602FB12
:101E400003F8064618B183690BB9FFF769FF1D4B0C
:101E50009C421AD17468A3891B0720D52369F3B16A
:101E60000025454529D0A36819F80510013B002B32
:101E7000A36004DAA269934219DB0A2917D0236808
:101E80005A1C226019700135EBE70F4B9C4201D1BF
:101E9000B468E0E70D4B9C4208BFF468DBE72146DD
:101EA000304600F0B9FA0028DAD0002505E02246D5
:101EB000304600F03FFA0130E5D1B5FBF7F0BDE860
:101EC000F88300BF84320008A4320008643200089E
:101ED00007B5009313460A46014603480068FFF71A
:101EE000A9FF03B05DF804FB08000020D0F8EC0067
:101EF00070470000044B054A1B681B6A002B08BF93
:101F00001346D3F8EC007047080000206C00002056
:101F100082B001B901A942B14BB113780B601278BC
:101F2000101C18BF012002B070471046FBE76FF08D
:101F30000100F8E702440346934200D1704703F8DA
:101F4000011BF9E770B5CD1C25F0030508350C2DF4
:101F500038BF0C25002D064601DBA94203D90C230E
:101F60003360002070BD00F0FDFB234A1468214659
:101F700091B9224C23681BB9304600F0A5F82060C7
:101F80002946304600F0A0F8431C26D10C233360CC
:101F9000304600F0E8FBE4E70B685B1B1AD40B2B20
:101FA0000FD90B60CD50CC18304600F0DCFB04F1AB
:101FB0000B00231D20F00700C31A1BD05A42E25029
:101FC00070BD8C420DBF63684B686360136018BFBF
:101FD0000C46E9E70C464968CAE7C41C24F0030430
:101FE000A04205D0211A304600F06EF80130CDD065
:101FF0002560D9E770BD00BFCC030020D0030020CE
:1020000070B50E46054618B183690BB9FFF788FE17
:10201000AB69AC6813B92846FFF782FE234B9C429C
:1020200017D16C68A3891B071DD52369DBB1013E5D
:10203000A36816F8011F013BA360E9B9002B2EDA53
:1020400022460A21284600F075F9013011D00A20F5
:1020500070BD174B9C4201D1AC68E3E7154B9C4225
:1020600008BFEC68DEE72146284600F0D5F90028D5
:10207000DDD04FF0FF3070BD002B04DAA26993422F
:1020800006DB0A2904D023685A1C22601970CFE7A6
:102090002246284600F04EF90130C9D1E9E723680D
:1020A0000A205A1C2260187070BD00BF84320008DC
:1020B000A432000864320008024B01461868FFF79A
:1020C0009FBF00BF0800002038B5064C002305461E
:1020D00008462360FEF788FF431C02D1236803B142
:1020E0002B6038BDD803002010B50C46B1F90E1096
:1020F00000F06EFE0028ABBF636DA3891B1823F4AC
:102100008053ACBF6365A38110BD2DE9F0411F462C
:102110008B89DB0505460C46164605D502230022B1
:10212000B1F90E1000F0A8FAA389B4F90E1023F447
:102130008053A38132463B462846BDE8F04100F07B
:1021400059B910B50C46B1F90E1000F095FA431CC0
:10215000A38915BF606523F4805343F48053A381A2
:1021600018BFA38110BDB1F90E1000F0C3B910F86B
:10217000012B11F8013B012A28BF9A42F7D0D01A4F
:102180007047034613F8012B002AFBD1181A0138B7
:1021900070472DE9F84F8046894692461F468B4688
:1021A0005D460A9815F8014BFFF7A0FE20444678DB
:1021B00016F008060BD12D2C0BD12C7801260BF133
:1021C000020567B1102F14D1302C0AD011E0AB46B4
:1021D000E6E72B2C04BF2C780BF10205F1E7302C3D
:1021E00027D12B7803F0DF03582B4BD16C781027C5
:1021F0000235002E0CBF6FF000414FF0004100226D
:10220000B1FBF7FE104607FB1E1CA4F13003092B9F
:1022100011D81C46A7421DDD531C07D0864516D396
:1022200001D1A44513DB00FB0740012215F8014B47
:10223000EBE70A27DDE7A4F14103192B01D8373C6E
:10224000E8E7A4F16103192B04D8573CE2E74FF00B
:10225000FF32EBE7531C08D12223C8F800300846B0
:10226000BAF1000F07D1BDE8F88F06B14042BAF1CC
:10227000000F0CD022B1013DCAF80050BDE8F88F24
:102280004D46F9E73024002FB3D10827B1E7BDE868
:10229000F88F0000084B37B51C68084D236A002BE7
:1022A00008BF2B46009313460A4601462046FFF717
:1022B00070FF03B030BD00BF080000206C0000209C
:1022C00030B5141E05469BB0184605DA8B232B60EB
:1022D0004FF0FF301BB030BD4FF40273ADF80C303F
:1022E00014BF04F1FF332346029305934FF6FF73A7
:1022F00000910491ADF80E3002461E9B69462846B7
:1023000000F0DCFA431CBCBF8B232B60002CE1D017
:10231000009B00221A70DDE707B5009313460A46BA
:10232000014603480068FFF7CBFF03B05DF804FBEC
:1023300008000020F8B50E461446054618B183691A
:102340000BB9FFF7EDFC214B9C422AD16C68A369C5
:10235000A360A3891A072ED5236963B32369206874
:10236000C01A6369F6B29842374604DB2146284614
:1023700000F058F928BBA368013BA36023685A1CEE
:1023800022601E7063690130984204D0A389DB0784
:1023900019D50A2E17D12146284600F043F990B1ED
:1023A0000FE00B4B9C4201D1AC68D0E7094B9C423B
:1023B00008BFEC68CBE72146284600F02DF800283E
:1023C000CCD04FF0FF373846F8BD00BF843200084C
:1023D000A43200086432000849B1FF2A85BF8A236D
:1023E00003600A704FF0FF3098BF01207047084625
:1023F0007047000038B5074C0546084611460022D4
:1024000022601A46FEF7C0FF431C02D1236803B1C5
:102410002B6038BDD8030020324B70B51D680646CE
:102420000C4625B1AB6913B92846FFF779FC2E4B52
:102430009C420FD16C68B4F90C309AB215072CD4B9
:10244000D00611D40922326043F04003A3814FF03B
:10245000FF3070BD254B9C4201D1AC68EBE7244BAB
:102460009C4208BFEC68E6E7510712D5616B41B1A9
:1024700004F14403994202D0304600F075F900237C
:102480006363A38923F02403A3810023636023698A
:102490002360A38943F00803A38123694BB9A3896F
:1024A00003F42073B3F5007F03D02146304600F0DB
:1024B00019F9A28912F001030CD00023A36063690B
:1024C0005B42A361236953B9B4F90C3013F0800067
:1024D000BAD170BD920758BF6369A360F2E70020CC
:1024E000F7E700BF0800002084320008A43200088B
:1024F0006432000838B5064C0023054608462360C0
:10250000FEF774FF431C02D1236803B12B6038BD72
:10251000D80300208A892DE9F041054610070C46B2
:102520005AD44B68002B05DC0B6C002B02DC00201E
:10253000BDE8F081E66A002EF9D0002312F4805243
:102540002F682B6033D0606DA3895A0705D5636867
:10255000C01A636B0BB1236CC01A00230246E66AF3
:10256000216A2846B047431CA38906D129681D2942
:102570004BD82B4ACA40D60747D500226260D904FF
:102580002269226004D5421C01D12B6803B9606521
:10259000616B2F600029CAD004F14403994202D034
:1025A000284600F0E1F800206063BDE8F081216A70
:1025B00001232846B047411CC6D12B68002BC3D04D
:1025C0001D2B01D0162B01D12F60B0E7A38943F05A
:1025D0004003A381BDE8F0810F69002FA7D09307C6
:1025E0000E6808BF4B690F6018BF0023A6EB0708F1
:1025F0008B60B8F1000F9ADD43463A46216AA66A1D
:102600002846B047002807DCA38943F04003A38194
:102610004FF0FF30BDE8F0810744A8EB0008E8E781
:102620000100402038B50B6905460C46DBB118B1F6
:1026300083690BB9FFF774FB0C4B9C4209D16C68A2
:10264000B4F90C307BB121462846BDE83840FFF78D
:1026500061BF074B9C4201D1AC68F1E7054B9C423E
:1026600008BFEC68ECE7002038BD00BF84320008EA
:10267000A43200086432000838B5074C0546084605
:102680001146002222601A46FEF76AFE431C02D160
:10269000236803B12B6038BDD803002070B50E4607
:1026A000B1F90E10002990B014461D4607DA002338
:1026B0002B60B3891A0610D44FF480630EE001AA90
:1026C00000F098FB0028F2DB029A02F47042A2F5B7
:1026D00000535A425A412A60EEE74023002023600B
:1026E00010B070BD8B8973B59D0706460C4607D5A3
:1026F00004F14703236023610123636102B070BDCD
:1027000001AB6A46FFF7CAFF009905463046FFF75E
:1027100019FC48B9B4F90C309A05EFD423F003033F
:1027200043F00203A381E3E70D4BB362A38920606A
:1027300043F08003A381009B6361019B20615BB137
:10274000B4F90E10304600F067FB28B1A38923F0DE
:10275000030343F00103A381A3891D43A581CDE7B2
:10276000A11C00087047704738B50546002945D0C0
:1027700051F8043C0C1F002BB8BFE418FFF7F2FF20
:102780001F4A1368104633B9636014602846BDE8D9
:102790003840FFF7E8BFA3420CD921686218934282
:1027A00004BF1A685B68636004BF5218226004604B
:1027B000ECE713465A680AB1A242FAD919685818C8
:1027C000A0420BD120680144581882421960DDD123
:1027D000106852685A6001441960D7E702D90C2387
:1027E0002B60D3E7206821188A4204BF1168526821
:1027F000626004BF091821605C60C7E738BD00BF94
:10280000CC0300202DE9F0478E689E4282460C469C
:102810009146984635D88A8912F4906F31D0256850
:1028200009696F1A6569022305EB450595FBF3F508
:1028300008F101033B449D4238BF1D46530531D585
:102840002946FFF77FFB064650B90C23CAF8003033
:10285000A38943F04003A3814FF0FF30BDE8F08728
:102860003A46216900F03CFBA38923F4906343F0CE
:102870008003A381266165613E44ED1B2660A5604F
:102880004646464528BF464632464946206800F03F
:1028900032FBA3689B1BA36023681E4426600020B4
:1028A000BDE8F0872A4600F040FB06460028E1D14B
:1028B00021695046FFF758FFC7E700002DE9F04FA8
:1028C0009DB0804603938B891C060D4616460FD596
:1028D0000B696BB94021FFF735FB2860286128B9E7
:1028E0000C23C8F800304FF0FF30C5E040236B6187
:1028F0000023099320238DF8293030238DF82A30C6
:102900004FF0010B37463C4614F8013B002B3CD1FD
:10291000B7EB060A0BD05346324629464046FFF72E
:1029200071FF013000F0A380099B534409933B7869
:10293000002B00F09C8000234FF0FF32049307939C
:10294000059206938DF853301A930522217850484A
:1029500000F076FA671C049BD8B9D90644BF202240
:102960008DF853201A0744BF2B228DF8532022786C
:102970002A2A16D0079A00210A20274601343B78DC
:10298000303B092B51D9C9B111E0252BC0D02746C6
:10299000B9E73F4A801A0BFA00F0184304903C460E
:1029A000D3E7039A111D12680391002A01DB0792F5
:1029B00004E0524243F00203079204933B782E2B2B
:1029C0000ED17B782A2B07F1010132D1039B1A1D0E
:1029D0001B680392002BB8BF4FF0FF3302370593FB
:1029E0002C4C39780322204600F02AFA38B14023D3
:1029F000001B03FA00F0049B03430493013739786A
:102A000025488DF8281006227E1C00F019FA0028AF
:102A100035D0224BFBB9039B073323F00703083360
:102A20000393099B4B4409936CE700FB023201219D
:102A3000A3E70023059318460A240F4601313A788C
:102A4000303A092A03D9002BCAD00590C8E704FB05
:102A500000200123F1E703AB00932A46104B04A9A1
:102A60004046AFF30080B0F1FF3F8146D9D1AB893A
:102A70005B063FF538AF09981DB0BDE8F08F03AB9A
:102A800000932A46064B04A9404600F081F8EAE785
:102A9000D3330008D9330008DD33000800000000FC
:102AA000052800082DE9F04791461F468A680B6902
:102AB000DDF820809342B8BF1346C9F8003091F882
:102AC000432006460C4612B10133C9F80030236892
:102AD000990642BFD9F800300233C9F800302568A2
:102AE00015F0060507D104F1190AE368D9F80020AA
:102AF0009B1A9D4229DB94F843302268003318BFAB
:102B0000012392062ED404F1430239463046C047D1
:102B1000013021D02368E568D9F8002003F00603CE
:102B2000042B08BFAD1AA36822690CBF25EAE5751E
:102B300000259342C4BF9B1AED184FF000091A34C8
:102B40004D451BD10020BDE8F08701235246394690
:102B50003046C047013003D14FF0FF30BDE8F08769
:102B60000135C2E7E1185A1C302081F843002244A5
:102B700094F8451082F843100233C4E7012322463B
:102B800039463046C0470130E6D009F10109D7E7A0
:102B90002DE9F04317460A7E85B06E2A9846064610
:102BA0000C460C9B01F1430E00F0BC801AD8632A3E
:102BB0002ED00AD8002A00F0C880582A00F08A8057
:102BC00004F1420584F842202AE0642A01D0692AEF
:102BD000F6D121681A6811F0800F23D0111D1960F9
:102BE000136827E0732A00F0B48008D86F2A2AD02F
:102BF000702AE5D10A6842F020020A6003E0752AD3
:102C000021D0782ADCD1782284F845206E4964E00E
:102C10001A6801F14205111D1960136884F84230E9
:102C20000123A3E011F0400F02F104011960D7D095
:102C3000B2F90030002B03DA2D225B4284F84320E6
:102C400062490A2217E02068196810F0800F03D04B
:102C5000081D18600B6806E010F0400F01F1040039
:102C60001860F7D00B8859496F2A14BF0A2208222E
:102C7000002084F843006568A560002DC0F29C80A8
:102C8000206820F004002060002B3FD1002D40F090
:102C900095807546082A0BD12368DA0708D5236981
:102CA00062689A42DEBF302305F8013C05F1FF352A
:102CB000AEEB05032361CDF800803B4603AA214615
:102CC0003046FFF7EFFE013055D14FF0FF3005B031
:102CD000BDE8F08381F845203C492268186812F06D
:102CE000800F00F104051D6001D0036802E0550665
:102CF000FBD50388D00744BF42F0200222601BB9F5
:102D0000226822F0200222601022B1E77546B3FB50
:102D1000F2F002FB1033CB5C05F8013D03460028BE
:102D2000F5D1B7E708681A68496910F0800F04D038
:102D3000101D18601368196007E010F0400F02F1D1
:102D4000040018601368F6D01980002323617546CB
:102D5000B1E71A68111D19601568626800212846DC
:102D600000F06EF808B1401B6060636823610023C7
:102D700084F843309FE723692A4639463046C047E6
:102D80000130A2D023689B0707D5002504F119095B
:102D9000E368039A9B1A9D4205DBE068039B984217
:102DA000B8BF184693E701234A4639463046C04724
:102DB00001308AD00135EBE7002BA7D10B7884F8DE
:102DC000423004F1420565E7F5330008E4330008BA
:102DD00038B5074C054608461146002222601A46BF
:102DE000FEF746FA431C02D1236803B12B6038BDBD
:102DF000D803002038B5074C002305460846114685
:102E00002360FEF73BFB431C02D1236803B12B6018
:102E100038BD00BFD803002038B5064C0023054656
:102E200008462360FEF737FB431C02D1236803B139
:102E30002B6038BDD8030020000000000000000017
:102E400001F0FF01102A2BDB10F0070F08D010F85B
:102E5000013B013A8B422DD010F0070F42B3F6D15F
:102E6000F0B441EA012141EA014122F007047FF078
:102E700000070023F0E80256083C85EA010586EACF
:102E8000010685FA47F5A3FA87F586FA47F6A5FA0B
:102E900087F68EB9EED1F0BC01F0FF0102F0070217
:102EA00032B110F8013B013A83EA010313B1F8D1C2
:102EB0000020704701387047002D06BF35460338A3
:102EC000073815F0010F07D1013015F4807F02BFDC
:102ED000013015F4C03F0130F0BC0138704700BF2D
:102EE00010B5431E0A44914200D110BD11F8014BA8
:102EF00003F8014FF7E7884210B501EB020303D84E
:102F0000421E99420CD110BD9842F9D28118D21AB2
:102F1000D34200D110BD13F8014D01F8014DF7E780
:102F200011F8014B02F8014FEBE7F8B507461446DC
:102F30000E4621B91146BDE8F840FFF703B822B9A3
:102F4000FFF712FC25462846F8BD00F014F884422D
:102F50000FD921463846FEF7F5FF05460028F2D086
:102F600031462246FFF7BCFF31463846FFF7FCFBEF
:102F7000E9E73546E7E751F8040C0028A0F1040022
:102F8000BCBF0B58C01870472E2E2F737973746511
:102F90006D2F7372632F73746D333266342D6861D5
:102FA0006C2F73746D3332663478785F68616C5F50
:102FB000636F727465782E63000000002E2E2F73ED
:102FC000797374656D2F7372632F73746D3332660A
:102FD000342D68616C2F73746D3332663478785F8A
:102FE00068616C5F6770696F2E630000000000000D
:102FF0000102030401020304060708092E2E2F73A1
:10300000797374656D2F7372632F73746D333266C9
:10301000342D68616C2F73746D3332663478785F49
:1030200068616C5F7263632E6300000061626F729F
:103030007428292C2065786974696E672E2E2E00FD
:103040003A7474006173736572745F706172616D5C
:103050002829206661696C65643A2066696C652080
:10306000222573222C206C696E652025640A0000DD
:103070006D61696E28617267633D25642C20617201
:1030800067763D5B000000002C20000022257322A3
:10309000000000005D293B0A0000000053746163DA
:1030A0006B206672616D653A0A0000002052302084
:1030B0003D2020253038580A0000000020523120E1
:1030C0003D2020253038580A0000000020523220D0
:1030D0003D2020253038580A0000000020523320BF
:1030E0003D2020253038580A00000000205231329F
:1030F000203D20253038580A00000000204C522086
:103100003D2020253038580A000000002050432080
:103110003D2020253038580A00000000205053522E
:10312000203D20253038580A000000004653522F19
:103130004641523A0A0000002043465352203D20A7
:1031400020253038580A00002048465352203D20A0
:1031500020253038580A00002044465352203D2094
:1031600020253038580A00002041465352203D2087
:1031700020253038580A0000204D4D464152203D50
:1031800020253038580A00002042464152203D2078
:1031900020253038580A00004D6973630A0000008A
:1031A000204C522F4558435F52455455524E3D20B6
:1031B000253038580A0000005B486172644661752A
:1031C0006C745D0A000000005B4275734661756CAB
:1031D000745D0A005B55736167654661756C745D6B
:1031E0000A000000000000000000000001020304CB
:1031F0000607080948656C6C6F2041524D20576FD7
:10320000726C6421000000005374616E646172642A
:10321000206F7574707574206D6573736167652EAA
:10322000000000005374616E646172642065727204
:103230006F72206D6573736167652E0A0000000070
:1032400053797374656D20636C6F636B3A202575D9
:1032500020487A0A000000005365636F6E642025E1
:10326000750A0000000000000000000000000000DF
:10327000000000000000000000000000000000004E
:10328000000000000000000000000000000000003E
:10329000000000000000000000000000000000002E
:1032A000000000000000000000000000000000001E
:1032B000000000000000000000000000000000000E
:1032C000000000000C0000204300504F53495800FC
:1032D0002E00002020202020202020202828282800
:1032E00028202020202020202020202020202020D6
:1032F0002020208810101010101010101010101026
:103300001010100404040404040404040410101035
:1033100010101010414141414141010101010101E1
:10332000010101010101010101010101010110106F
:1033300010101010424242424242020202020202B5
:103340000202020202020202020202020202101041
:10335000101020000000000000000000000000002D
:10336000000000000000000000000000000000005D
:10337000000000000000000000000000000000004D
:10338000000000000000000000000000000000003D
:10339000000000000000000000000000000000002D
:1033A000000000000000000000000000000000001D
:1033B000000000000000000000000000000000000D
:1033C00000000000000000000000000000000000FD
:1033D000000000232D302B2000686C4C00656667D0
:1033E000454647003031323334353637383941427B
:1033F000434445460030313233343536373839614D
:06340000626364656600D2
:10340800785634120024F4000C000020000000005C
:1034180084320008A432000864320008000000006A
:103428000000000000000000000000000000000094
:103438000000000000000000000000000000000084
:103448000000000000000000000000000000000074
:103458000000000000000000000000000000000064
:103468000000000000000000000000004300000011
:103478000000000000000000000000000000000044
:1034880000000000000000000000000043000000F1
:103498000000000000000000000000000000000024
:1034A80000000000000000000000000043000000D1
:1034B8000000000000000000000000000000000004
:1034C80000000000000000000000000043000000B1
:1034D80000000000000000000000000000000000E4
:1034E8000000000000000000000000004300000091
:1034F80000000000000000000000000000000000C4
:103508000000000000000000000000004300000070
:1035180000000000000000000000000000000000A3
:103528000000000000000000000000004300000050
:103538000000000000000000000000000000000083
:10354800000000000000000000000000D92300086F
:10355800111F000800000000D2320008D032000815
:10356800D8330008D8330008D8330008D833000807
:10357800D8330008D8330008D8330008D8330008F7
:10358800D8330008FFFFFFFFFFFFFFFFFFFFFFFF2C
:10359800FFFF0000010041534349490000000000BB
:1035A8000000000000000000000000000000000013
:1035B800000000000000415343494900000000009A
:1035C80000000000000000000000000000000000F3
:0C35D80000000000000000003254769853
:040000050800018965
:00000001FF
